:100000000C943E000C945B000C945B000C945B0021
:100010000C945B000C945B000C945B000C945B00F4
:100020000C945B000C945B000C945B000C945B00E4
:100030000C945B000C945B000C945B000C945B00D4
:100040000C945B000C945B000C945B000C945B00C4
:100050000C945B000C945B000C945B000C945B00B4
:100060000C945B000C945B000C945B000C945B00A4
:100070000C945B000C945B000C945B0011241FBE7D
:10008000CFEFD0E1DEBFCDBF11E0A0E0B1E0EAEA02
:10009000F1E002C005900D92A639B107D9F721E031
:1000A000A6E9B1E001C01D92AA39B207E1F70E94AA
:1000B00088000C94D3000C94000080E28AB9E0E838
:1000C000F0E0808181648083E1E8F0E080818261FA
:1000D000808388ED98EBA5E0B0E080939601909343
:1000E0009701A0939801B093990108959C0140E075
:1000F00050E06091960170919701809198019091E4
:1001000099010E94B10030938900209388000895DE
:100110000E945D00C0E0D1E0899199910E94760033
:100120002FE38EE795E0215080409040E1F700C03A
:10013000000021E0C639D20779F7C6E9D1E09A91EB
:100140008A910E9476008FE39EE725E081509040DF
:100150002040E1F700C0000081E0C230D80779F705
:10016000D9CFA1E21A2EAA1BBB1BFD010DC0AA1FED
:10017000BB1FEE1FFF1FA217B307E407F50720F010
:10018000A21BB30BE40BF50B661F771F881F991F8B
:100190001A9469F760957095809590959B01AC01D4
:0A01A000BD01CF010895F894FFCFD0
:1001AA003E004100450049004E00520057005C00E5
:1001BA00620068006E0075007B0083008B0093006C
:1001CA009C00A500AF00B900C400D000DC00E90023
:1001DA00F70006011501260137014A015D01720186
:1001EA0088019F01B801D201EE010B022A024B02DB
:1001FA006E029302BA02E40210033F037003A403DF
:10020A00DC03170455049704DD0427057505C805A2
:10021A0020067D06E0064907B8072D08A9082D091A
:10022A00B9094D0AEA0A900B400CFA0CC00D910E5E
:06023A006F0F5A10531172
:00000001FF
