:100000000C9442000C945F000C945F000C945F0011
:100010000C945F000C945F000C945F000C945F00E4
:100020000C945F000C945F000C945F000C945F00D4
:100030000C945F000C945F000C945F000C945F00C4
:100040000C945F000C945F000C945F000C945F00B4
:100050000C945F000C945F000C945F000C945F00A4
:100060000C945F000C945F000C945F000C945F0094
:100070000C945F000C945F000C945F006E616E0046
:10008000696E660011241FBECFEFD0E1DEBFCDBF89
:1000900011E0A0E0B1E0E4E9F0E102C005900D92CA
:1000A000A832B107D9F721E0A8E2B1E001C01D9262
:1000B000AE32B207E1F70E9498040C94CB070C947F
:1000C0000000CF93C82F8A3019F48DE00E946100A0
:1000D0008091C00085FFFCCFC093C6008C2FCC0F51
:1000E000990BCF9108958091C00087FFFCCF80913C
:1000F000C60090E008951092C5008DE48093C4007E
:1001000088E18093C10086E08093C200E8E2F1E0DC
:100110008EE091E0938382839583848380E091E0F5
:10012000918380830895EAE7F0E080818668808388
:10013000279A089580917A00806480937A00809154
:100140007A0086FDFCCF8091780090917900089527
:1001500080937C0008952F923F924F925F926F920E
:100160007F928F929F92AF92BF92CF92DF92EF9247
:10017000FF920F931F93CF93DF931B018C01BA0162
:1001800080E090E00E94280521013801A30192013E
:100190004B015C01C501B4010E948E056B017C011D
:1001A000C701B6010E94F904EB01E12CF12CEC1619
:1001B000FD06B1F486E291E0DF91CF911F910F919E
:1001C000FF90EF90DF90CF90BF90AF909F908F9077
:1001D0007F906F905F904F903F902F900C944107CD
:1001E00060912A0170912B0180E290E00E9411073A
:1001F0008FEFE81AF80ADBCFA2E1B0E0E2E0F1E02D
:100200000C94C2047C013B018A01FC011782168216
:10021000838181FF68C3F7012381F30123FD859169
:1002200023FF81913F01811509F443C0853239F4E0
:1002300023FD959123FF91913F01953239F4B70148
:1002400090E00E94110768018601E5CF30E0512C53
:10025000912C812CF0E28F1608F03DC09B3281F189
:1002600060F4903279F1933299F19E3209F04AC0EC
:1002700086FC1FC0689486F806C09D3231F1903329
:1002800061F5689480F8F30123FD959123FF919126
:100290003F019111DFCF882D897F482E903709F4D7
:1002A00094C208F08AC2983509F494C29F3609F4C2
:1002B00099C2F701868197816296E2E10C94DE048F
:1002C000689481F8689482F8DECF689483F8DBCF75
:1002D000689484F8D8CF87FC1FC080ED890F8A30DE
:1002E00008F0C3CF86FE06C04AE0549E800D11245C
:1002F000582EC9CF5AE0959E800D1124982E6894EF
:1003000085F8C1CF9C3619F4689487F8BCCF9C342B
:1003100001F1983609F4B7CF3115E9F0892F8F7DB7
:100320008554833008F0A5C1085F1F4F68018FE333
:10033000898322242394312C8E010F5F1F4FE89470
:1003400087F883FC04C02914310408F4F9C1492C4E
:100350000DC231E098CF8BEB890F8330A8F46894FD
:1003600084F8905E86FC02C026E0522EE82DEF73E2
:100370008E2E953689F4689486F828E0521608F097
:1003800044C0252D1E8614C08BE9890F833008F0E8
:1003900070C1E89484F8E6CF963689F5689487F8BA
:1003A000852DFCE35F1608F08BE38F5F8E8727E0D7
:1003B000F80161917191819191916F010E85AE016A
:1003C0004F5F5F4F0E9423065C01F981F88BF0FFBD
:1003D00003C01DE2F3FF05C082FA112715F981FC65
:1003E0001BE228892C70422E211549F111117EC281
:1003F00024E0412C921608F490C283E07CC220E0F5
:10040000511409F4BFCF5A94B8CF27E097E0592E82
:10041000B9CF81108052B70190E00E9411070F5FA1
:100420001F4FF80184918111F4CF411409F40CCFCE
:10043000B70180E290E00E9411074A94F6CF87FE50
:100440002FC08E858A0DF889F4FF04C09A819133FC
:1004500009F4815018160CF048C08E87893010F0CE
:1004600028E02E87C501B7FE02C080E090E001962B
:1004700011110196511431F0252D30E02F5F3F4FBF
:10048000820F931F8915910514F4492C481A882D61
:100490008970811139C0411030C01115F1F136C099
:1004A00086FC28C0E52DF0E05A141B043CF03CEF1C
:1004B000A3163FEFB30614F0689487F83296AE01A6
:1004C0004F5F5F4FE40FF51F01C05A94511419F0AC
:1004D00082918033D1F387FE0DC051E0550D5E87C8
:1004E000A514B1042CF45A18BDCF81E08E87BACF81
:1004F000512CB8CF85E090E0BBCFB70180E290E00F
:100500000E9411074A94C7CF111529F0B701812F16
:1005100090E00E94110783FC02C0411040C087FE9A
:1005200059C04501B7FE02C0812C912CCE01019625
:100530008A0D9B1DFC01E819F909FA8BE98B9501DD
:100540004E85241B31093F872E87052D10E011951C
:1005500001951109A814B9044CF18E859F85881561
:10056000990524F5E989FA898181F1E08F1A9108CA
:1005700029893A892F5F3F4F3A8B298B8016910644
:10058000BCF0B70190E00E9411073FEF831693067D
:1005900009F7B7018EE290E00E941107DBCFB701A7
:1005A00080E390E00E9411074A94B7CF80E3DDCF4B
:1005B000A814B90441F49A81963350F4953319F490
:1005C000488944FF05C0B70190E00E9411072DCF74
:1005D00081E3F9CF8A81813319F058895F7E588B86
:1005E000B70190E00E941107511026C085E490E009
:1005F00084FC02C085E690E0B7010E941107B7FCB9
:1006000006C0A114B10471F5888984FF2BC0B19490
:10061000A194B1088DE2B70190E00E94110780E338
:10062000EAE0AE16B10404F5B70190E00E941107AC
:10063000B701C501C096C9CFB7018EE290E00E9414
:1006400011075394539412E0812F1F5FFE013196DE
:10065000E80FF11D8081B70190E00E94110715118C
:10066000F3CFC4CF8BE2D7CF8F5F9AE0A91AB1083E
:10067000D7CF9336F1F1933709F442C0933509F49B
:100680004EC0943619F0993609F07CC0F80187FE07
:1006900071C061917191819191916F01082D0F76D7
:1006A00097FF08C090958095709561957F4F8F4F0B
:1006B0009F4F00682AE030E0AE014F5F5F4F5D87DB
:1006C0004C870E946D07182F5C85151B06FF94C090
:1006D000802F8E7F151508F08EC004FFE1C002FD4B
:1006E000D5C00E7E452C802F8678811509F48FC0E9
:1006F000D2C06801F2E0CF0ED11CF801808118CE83
:10070000F801019111916F01652D70E086FC02C026
:100710006FEF7FEFC8010E9406071C0110CEF801A1
:10072000019111916F01652D70E086FC02C06FEFA1
:100730007FEFC8010E94FB061C01689487F801CE78
:10074000B70180E290E00E9411079A94FCCDF80175
:1007500087FC859187FE81918F01B70190E00E940F
:10076000110741104A94F1E02F1A31082114310485
:1007700071F75BCE619171916F01072E000C880BB0
:10078000990B8CCF482CE89444F82AE030E0953758
:1007900009F081CDF80147FE28C0619171918191E6
:1007A00091916F018E010F5F1F4FA8010E946D078D
:1007B000182F101B042D0F7789CF983709F079CDAA
:1007C00084FC05C020E130E0E5CF689444F86894EB
:1007D00042F8F8CF84FE03C0982D9660492E20E1A0
:1007E00032E0D8CF28E030E0D5CF619171916F0130
:1007F00080E090E0D7CF082F412E04FF74CFFE0198
:10080000E10FF11D8081803309F043C0097E03FDB3
:100810000EC000FF51C0512E491418F4590C541841
:10082000492C892D8419941408F480E0480E491449
:1008300008F044C09418492C04FF42C0B70180E37B
:1008400090E00E94110702FF09C088E590E001FDD9
:1008500002C088E790E0B7010E9411071515E0F18A
:100860001150012F10E00F5F1F4F9E012F5F3F4F70
:100870004901020F131FF80182918F01B70190E027
:100880000E94110780169106B1F7CFCD452C082F95
:10089000B6CF02FD02C04394BACF43944394B7CF7E
:1008A000452C082F20CFB70180E290E00E9411076D
:1008B00083948914C0F3B5CF842CFBCF412CBCCFDB
:1008C000802F8678811551F280E201FD8BE207FDD1
:1008D0008DE2B70190E0C0CFB70180E390E00E94C5
:1008E00011075A94BBCF8FEF9FEFE6CCF5E0412C78
:1008F0009F1670F084E0492C481A83FC07C0B701AA
:1009000080E290E00E9411074A94C9F7111529F07E
:10091000B701812F90E00E94110738890CE710E0A1
:1009200033FD02C000E810E0482D4071842E79CDDF
:100930000E947B000E94930081E080937C000E94D3
:100940009A00BC0180E090E00E94280520E030E0A1
:1009500040E85AE34B015C01C501B4010E948E05D9
:100960004CE350E06B017C01C701B6010E94AB0073
:100970002FEB84ED91E0215080409040E1F700C0E2
:100980000000DDCF2F923F924F925F926F927F9245
:100990008F929F92AF92BF92CF92DF92EF92FF928F
:1009A0000F931F93CF93DF93CDB7DEB7CA1BDB0B3B
:1009B0000FB6F894DEBF0FBECDBF09942A883988E0
:1009C00048885F846E847D848C849B84AA84B984E7
:1009D000C884DF80EE80FD800C811B81AA81B981F3
:1009E000CE0FD11D0FB6F894DEBF0FBECDBFED0107
:1009F00008950E946D0588F09F5798F0B92F9927A8
:100A0000B751B0F0E1F0660F771F881F991F1AF0F9
:100A1000BA95C9F714C0B13091F00E948705B1E0D2
:100A200008950C948705672F782F8827B85F39F0D1
:100A3000B93FCCF3869577956795B395D9F73EF492
:100A400090958095709561957F4F8F4F9F4F08953A
:100A5000E89409C097FB3EF4909580957095619558
:100A60007F4F8F4F9F4F9923A9F0F92F96E9BB270E
:100A70009395F695879577956795B795F111F8CF8A
:100A8000FAF4BB0F11F460FF1BC06F5F7F4F8F4FF5
:100A90009F4F16C0882311F096E911C0772321F0EB
:100AA0009EE8872F762F05C0662371F096E8862F83
:100AB00070E060E02AF09A95660F771F881FDAF7DA
:100AC000880F9695879597F9089557FD9058440F8C
:100AD000551F59F05F3F71F04795880F97FB991F9D
:100AE00061F09F3F79F0879508951216130614065A
:100AF000551FF2CF4695F1DF08C0161617061806E7
:100B0000991FF1CF86957105610508940895E894C1
:100B1000BB2766277727CB0197F908950E94A10587
:100B20000C9412060E94040638F00E940B0620F076
:100B3000952311F00C94FB050C94010611240C94E0
:100B400088050E94650570F3959FC1F3950F50E0ED
:100B5000551F629FF001729FBB27F00DB11D639F6F
:100B6000AA27F00DB11DAA1F649F6627B00DA11D15
:100B7000661F829F2227B00DA11D621F739FB00DBB
:100B8000A11D621F839FA00D611D221F749F33272B
:100B9000A00D611D231F849F600D211D822F762FC4
:100BA0006A2F11249F5750409AF0F1F088234AF0A1
:100BB000EE0FFF1FBB1F661F771F881F915050400D
:100BC000A9F79E3F510580F00C94FB050C94880515
:100BD0005F3FE4F3983ED4F3869577956795B79594
:100BE000F795E7959F5FC1F7FE2B880F911D9695AE
:100BF000879597F9089597F99F6780E870E060E01E
:100C000008959FEF80EC089500240A9416161706A5
:100C100018060906089500240A94121613061406ED
:100C200005060895092E0394000C11F4882352F050
:100C3000BB0F40F4BF2B11F460FF04C06F5F7F4F08
:100C40008F4F9F4F0895283008F027E03327DA01AF
:100C5000990F311D87FD916000966105710539F48A
:100C600032602E5F3D9330E32A95E1F708959F3F70
:100C700030F080387105610509F03C5F3C5F3D93C1
:100C8000913008F08068911DDF93CF931F930F93ED
:100C9000FF92EF92192F987F9695E92F969596954A
:100CA000E90FFF27EC50F04F99273327EE24FF245C
:100CB000A701E70105900894079428F4360FE71E72
:100CC000F81E491F511D660F771F881F991F069434
:100CD000A1F70590079428F4E70EF81E491F561F48
:100CE000C11D770F881F991F661F0694A1F70590F5
:100CF000079428F4F80E491F561FC71FD11D880FEF
:100D0000991F661F771F0694A1F70590079420F49A
:100D1000490F561FC71FD81F990F661F771F881FBF
:100D20000694A9F784911095177041F0D695C79550
:100D300057954795F794E7941A95C1F7EAE9FFE0CC
:100D400068941590159135916591959105907FE284
:100D50007395E118F10A430B560BC90BD009C0F784
:100D6000E10CF11E431F561FC91FD01D7EF47033C6
:100D700011F48A95E6CFE894015030F0080F0AF498
:100D80000027021708F4202F2395022F7A3328F02A
:100D900079E37D932A95E9F710C07D932A9589F62A
:100DA000069497956795379517951794E118F10A6A
:100DB000430B560BC90BD00998F023957E91739580
:100DC0007A3308F070E37C932013B8F77E9170615A
:100DD0007D9330F0839571E37D9370E32A95E1F77D
:100DE0001124EF90FF900F911F91CF91DF919927E0
:100DF00087FD90950895FC010590615070400110A9
:100E0000D8F7809590958E0F9F1F0895FC01615033
:100E1000704001900110D8F7809590958E0F9F1F1C
:100E200008950F931F93CF93DF93182F092FEB0192
:100E30008B8181FD09C01FEF0FEF812F902FDF9174
:100E4000CF911F910F91089582FF14C02E813F8191
:100E50008C819D81281739073CF4E881F981CF0105
:100E600001969983888310838E819F8101969F8349
:100E70008E83E3CFE885F985812F0995892BA1F32E
:100E8000DACF0F931F93CF93DF93E0912A01F09174
:100E90002B01238100E010E021FD0EC00FEF1FEFBA
:100EA000C801DF91CF911F910F9108950995892B6A
:100EB00011F00FEF1FEFCE01EC01899160912A0133
:100EC00070912B01DB011896ED91FC918111EECF11
:100ED0008AE00995892B21F3E1CFFA01AA2728306E
:100EE00051F1203181F1E8946F936E7F6E5F7F4FF7
:100EF0008F4F9F4FAF4FB1E03ED0B4E03CD0670F73
:100F0000781F891F9A1FA11D680F791F8A1F911DC5
:100F1000A11D6A0F711D811D911DA11D20D009F415
:100F200068943F912AE0269F11243019305D319357
:100F3000DEF6CF010895462F4770405D4193B3E040
:100F40000FD0C9F7F6CF462F4F70405D4A3318F0E7
:100F5000495D31FD4052419302D0A9F7EACFB4E098
:100F6000A6959795879577956795BA95C9F7009750
:100F70006105710508959B01AC010A2E06945795F1
:100F8000479537952795BA95C9F7620F731F841F48
:100F9000951FA01D0895F894FFCF00407A10F35AD2
:100FA00000A0724E18090010A5D4E80000E87648A9
:100FB000170000E40B54020000CA9A3B000000E155
:100FC000F505000080969800000040420F000000E8
:100FD000A08601000000102700000000E8030000C8
:100FE00000006400000000000A0000000000010092
:100FF000000000002C76D888DC674F0823DFC1DFB3
:10100000AE59E1B1B796E5E3E453C63AE6519976B5
:1010100096E8E6C28426EB898C9B62ED407C6FFCEF
:10102000EFBC9C9F40F2BAA56FA5F490055A2AF731
:101030005C936B6CF9676DC11BFCE0E40D47FEF53A
:1010400020E6B500D0ED902E0300943577050080A2
:10105000841E080000204E0A000000C80C33333301
:10106000330F986E12831141EF8D2114893BE655A1
:1010700016CFFEE6DB18D1844B381BF77C1D901D84
:10108000A4BBE424203284725E228100C9F124ECE6
:04109000A1E53D2772
:1010940000000001000000000000730000000000D8
:1010A4000002000000006100000000003C0048E174
:0810B4007A3F2FDD243F2A00E2
:00000001FF
